{
  "_format": "hh-sol-artifact-1",
  "contractName": "DecentralizedWarranty",
  "sourceName": "contracts/Warranty.sol",
  "abi": [
    {
      "inputs": [],
      "stateMutability": "nonpayable",
      "type": "constructor"
    },
    {
      "anonymous": false,
      "inputs": [
        {
          "indexed": true,
          "internalType": "address",
          "name": "owner",
          "type": "address"
        },
        {
          "indexed": true,
          "internalType": "address",
          "name": "approved",
          "type": "address"
        },
        {
          "indexed": true,
          "internalType": "uint256",
          "name": "tokenId",
          "type": "uint256"
        }
      ],
      "name": "Approval",
      "type": "event"
    },
    {
      "anonymous": false,
      "inputs": [
        {
          "indexed": true,
          "internalType": "address",
          "name": "owner",
          "type": "address"
        },
        {
          "indexed": true,
          "internalType": "address",
          "name": "operator",
          "type": "address"
        },
        {
          "indexed": false,
          "internalType": "bool",
          "name": "approved",
          "type": "bool"
        }
      ],
      "name": "ApprovalForAll",
      "type": "event"
    },
    {
      "anonymous": false,
      "inputs": [
        {
          "indexed": true,
          "internalType": "address",
          "name": "previousOwner",
          "type": "address"
        },
        {
          "indexed": true,
          "internalType": "address",
          "name": "newOwner",
          "type": "address"
        }
      ],
      "name": "OwnershipTransferred",
      "type": "event"
    },
    {
      "anonymous": false,
      "inputs": [
        {
          "indexed": true,
          "internalType": "address",
          "name": "from",
          "type": "address"
        },
        {
          "indexed": true,
          "internalType": "address",
          "name": "to",
          "type": "address"
        },
        {
          "indexed": true,
          "internalType": "uint256",
          "name": "tokenId",
          "type": "uint256"
        }
      ],
      "name": "Transfer",
      "type": "event"
    },
    {
      "inputs": [
        {
          "internalType": "address",
          "name": "to",
          "type": "address"
        },
        {
          "internalType": "uint256",
          "name": "tokenId",
          "type": "uint256"
        }
      ],
      "name": "approve",
      "outputs": [],
      "stateMutability": "nonpayable",
      "type": "function"
    },
    {
      "inputs": [
        {
          "internalType": "address",
          "name": "owner",
          "type": "address"
        }
      ],
      "name": "balanceOf",
      "outputs": [
        {
          "internalType": "uint256",
          "name": "",
          "type": "uint256"
        }
      ],
      "stateMutability": "view",
      "type": "function"
    },
    {
      "inputs": [
        {
          "internalType": "uint256",
          "name": "tokenId",
          "type": "uint256"
        }
      ],
      "name": "getApproved",
      "outputs": [
        {
          "internalType": "address",
          "name": "",
          "type": "address"
        }
      ],
      "stateMutability": "view",
      "type": "function"
    },
    {
      "inputs": [
        {
          "internalType": "address",
          "name": "owner",
          "type": "address"
        },
        {
          "internalType": "address",
          "name": "operator",
          "type": "address"
        }
      ],
      "name": "isApprovedForAll",
      "outputs": [
        {
          "internalType": "bool",
          "name": "",
          "type": "bool"
        }
      ],
      "stateMutability": "view",
      "type": "function"
    },
    {
      "inputs": [],
      "name": "name",
      "outputs": [
        {
          "internalType": "string",
          "name": "",
          "type": "string"
        }
      ],
      "stateMutability": "view",
      "type": "function"
    },
    {
      "inputs": [],
      "name": "owner",
      "outputs": [
        {
          "internalType": "address",
          "name": "",
          "type": "address"
        }
      ],
      "stateMutability": "view",
      "type": "function"
    },
    {
      "inputs": [
        {
          "internalType": "uint256",
          "name": "tokenId",
          "type": "uint256"
        }
      ],
      "name": "ownerOf",
      "outputs": [
        {
          "internalType": "address",
          "name": "",
          "type": "address"
        }
      ],
      "stateMutability": "view",
      "type": "function"
    },
    {
      "inputs": [],
      "name": "renounceOwnership",
      "outputs": [],
      "stateMutability": "nonpayable",
      "type": "function"
    },
    {
      "inputs": [
        {
          "internalType": "address",
          "name": "to",
          "type": "address"
        },
        {
          "internalType": "uint256",
          "name": "tokenId",
          "type": "uint256"
        },
        {
          "internalType": "string",
          "name": "uri",
          "type": "string"
        }
      ],
      "name": "safeMint",
      "outputs": [],
      "stateMutability": "nonpayable",
      "type": "function"
    },
    {
      "inputs": [
        {
          "internalType": "address",
          "name": "from",
          "type": "address"
        },
        {
          "internalType": "address",
          "name": "to",
          "type": "address"
        },
        {
          "internalType": "uint256",
          "name": "tokenId",
          "type": "uint256"
        }
      ],
      "name": "safeTransferFrom",
      "outputs": [],
      "stateMutability": "nonpayable",
      "type": "function"
    },
    {
      "inputs": [
        {
          "internalType": "address",
          "name": "from",
          "type": "address"
        },
        {
          "internalType": "address",
          "name": "to",
          "type": "address"
        },
        {
          "internalType": "uint256",
          "name": "tokenId",
          "type": "uint256"
        },
        {
          "internalType": "bytes",
          "name": "data",
          "type": "bytes"
        }
      ],
      "name": "safeTransferFrom",
      "outputs": [],
      "stateMutability": "nonpayable",
      "type": "function"
    },
    {
      "inputs": [
        {
          "internalType": "address",
          "name": "operator",
          "type": "address"
        },
        {
          "internalType": "bool",
          "name": "approved",
          "type": "bool"
        }
      ],
      "name": "setApprovalForAll",
      "outputs": [],
      "stateMutability": "nonpayable",
      "type": "function"
    },
    {
      "inputs": [
        {
          "internalType": "bytes4",
          "name": "interfaceId",
          "type": "bytes4"
        }
      ],
      "name": "supportsInterface",
      "outputs": [
        {
          "internalType": "bool",
          "name": "",
          "type": "bool"
        }
      ],
      "stateMutability": "view",
      "type": "function"
    },
    {
      "inputs": [],
      "name": "symbol",
      "outputs": [
        {
          "internalType": "string",
          "name": "",
          "type": "string"
        }
      ],
      "stateMutability": "view",
      "type": "function"
    },
    {
      "inputs": [
        {
          "internalType": "uint256",
          "name": "index",
          "type": "uint256"
        }
      ],
      "name": "tokenByIndex",
      "outputs": [
        {
          "internalType": "uint256",
          "name": "",
          "type": "uint256"
        }
      ],
      "stateMutability": "view",
      "type": "function"
    },
    {
      "inputs": [
        {
          "internalType": "address",
          "name": "owner",
          "type": "address"
        },
        {
          "internalType": "uint256",
          "name": "index",
          "type": "uint256"
        }
      ],
      "name": "tokenOfOwnerByIndex",
      "outputs": [
        {
          "internalType": "uint256",
          "name": "",
          "type": "uint256"
        }
      ],
      "stateMutability": "view",
      "type": "function"
    },
    {
      "inputs": [
        {
          "internalType": "uint256",
          "name": "tokenId",
          "type": "uint256"
        }
      ],
      "name": "tokenURI",
      "outputs": [
        {
          "internalType": "string",
          "name": "",
          "type": "string"
        }
      ],
      "stateMutability": "view",
      "type": "function"
    },
    {
      "inputs": [],
      "name": "totalSupply",
      "outputs": [
        {
          "internalType": "uint256",
          "name": "",
          "type": "uint256"
        }
      ],
      "stateMutability": "view",
      "type": "function"
    },
    {
      "inputs": [
        {
          "internalType": "address",
          "name": "from",
          "type": "address"
        },
        {
          "internalType": "address",
          "name": "to",
          "type": "address"
        },
        {
          "internalType": "uint256",
          "name": "tokenId",
          "type": "uint256"
        }
      ],
      "name": "transferFrom",
      "outputs": [],
      "stateMutability": "nonpayable",
      "type": "function"
    },
    {
      "inputs": [
        {
          "internalType": "address",
          "name": "newOwner",
          "type": "address"
        }
      ],
      "name": "transferOwnership",
      "outputs": [],
      "stateMutability": "nonpayable",
      "type": "function"
    }
  ],
  "bytecode": "0x60806040523480156200001157600080fd5b50604080518082018252601581527f446563656e7472616c697a656457617272616e7479000000000000000000000060208083019182528351808501909452600384526244655760e81b908401528151919291620000729160009162000101565b5080516200008890600190602084019062000101565b505050620000a56200009f620000ab60201b60201c565b620000af565b620001e4565b3390565b600b80546001600160a01b038381166001600160a01b0319831681179093556040519116919082907f8be0079c531659141344cd1fd0a4f28419497f9722a3daafe3b4186f6b6457e090600090a35050565b8280546200010f90620001a7565b90600052602060002090601f0160209004810192826200013357600085556200017e565b82601f106200014e57805160ff19168380011785556200017e565b828001600101855582156200017e579182015b828111156200017e57825182559160200191906001019062000161565b506200018c92915062000190565b5090565b5b808211156200018c576000815560010162000191565b600181811c90821680620001bc57607f821691505b60208210811415620001de57634e487b7160e01b600052602260045260246000fd5b50919050565b611baa80620001f46000396000f3fe608060405234801561001057600080fd5b506004361061012c5760003560e01c806370a08231116100ad578063b88d4fde11610071578063b88d4fde14610266578063c87b56dd14610279578063cd279c7c1461028c578063e985e9c51461029f578063f2fde38b146102db57600080fd5b806370a082311461021f578063715018a6146102325780638da5cb5b1461023a57806395d89b411461024b578063a22cb4651461025357600080fd5b806323b872dd116100f457806323b872dd146101c05780632f745c59146101d357806342842e0e146101e65780634f6ccce7146101f95780636352211e1461020c57600080fd5b806301ffc9a71461013157806306fdde0314610159578063081812fc1461016e578063095ea7b31461019957806318160ddd146101ae575b600080fd5b61014461013f3660046118a8565b6102ee565b60405190151581526020015b60405180910390f35b6101616102ff565b6040516101509190611990565b61018161017c3660046118e0565b610391565b6040516001600160a01b039091168152602001610150565b6101ac6101a7366004611817565b6103b8565b005b6008545b604051908152602001610150565b6101ac6101ce366004611729565b6104d3565b6101b26101e1366004611817565b610504565b6101ac6101f4366004611729565b61059a565b6101b26102073660046118e0565b6105b5565b61018161021a3660046118e0565b610656565b6101b261022d3660046116dd565b6106b6565b6101ac61073c565b600b546001600160a01b0316610181565b610161610750565b6101ac6102613660046117dd565b61075f565b6101ac610274366004611764565b61076e565b6101616102873660046118e0565b6107a6565b6101ac61029a366004611840565b6107b1565b6101446102ad3660046116f7565b6001600160a01b03918216600090815260056020908152604080832093909416825291909152205460ff1690565b6101ac6102e93660046116dd565b6107cd565b60006102f982610846565b92915050565b60606000805461030e90611ab2565b80601f016020809104026020016040519081016040528092919081815260200182805461033a90611ab2565b80156103875780601f1061035c57610100808354040283529160200191610387565b820191906000526020600020905b81548152906001019060200180831161036a57829003601f168201915b5050505050905090565b600061039c8261086b565b506000908152600460205260409020546001600160a01b031690565b60006103c382610656565b9050806001600160a01b0316836001600160a01b031614156104365760405162461bcd60e51b815260206004820152602160248201527f4552433732313a20617070726f76616c20746f2063757272656e74206f776e656044820152603960f91b60648201526084015b60405180910390fd5b336001600160a01b0382161480610452575061045281336102ad565b6104c45760405162461bcd60e51b815260206004820152603e60248201527f4552433732313a20617070726f76652063616c6c6572206973206e6f7420746f60448201527f6b656e206f776e6572206e6f7220617070726f76656420666f7220616c6c0000606482015260840161042d565b6104ce83836108ca565b505050565b6104dd3382610938565b6104f95760405162461bcd60e51b815260040161042d906119f5565b6104ce8383836109b7565b600061050f836106b6565b82106105715760405162461bcd60e51b815260206004820152602b60248201527f455243373231456e756d657261626c653a206f776e657220696e646578206f7560448201526a74206f6620626f756e647360a81b606482015260840161042d565b506001600160a01b03919091166000908152600660209081526040808320938352929052205490565b6104ce8383836040518060200160405280600081525061076e565b60006105c060085490565b82106106235760405162461bcd60e51b815260206004820152602c60248201527f455243373231456e756d657261626c653a20676c6f62616c20696e646578206f60448201526b7574206f6620626f756e647360a01b606482015260840161042d565b6008828154811061064457634e487b7160e01b600052603260045260246000fd5b90600052602060002001549050919050565b6000818152600260205260408120546001600160a01b0316806102f95760405162461bcd60e51b8152602060048201526018602482015277115490cdcc8c4e881a5b9d985b1a59081d1bdad95b88125160421b604482015260640161042d565b60006001600160a01b0382166107205760405162461bcd60e51b815260206004820152602960248201527f4552433732313a2061646472657373207a65726f206973206e6f7420612076616044820152683634b21037bbb732b960b91b606482015260840161042d565b506001600160a01b031660009081526003602052604090205490565b610744610b5e565b61074e6000610bb8565b565b60606001805461030e90611ab2565b61076a338383610c0a565b5050565b6107783383610938565b6107945760405162461bcd60e51b815260040161042d906119f5565b6107a084848484610cd9565b50505050565b60606102f982610d0c565b6107b9610b5e565b6107c38383610e15565b6104ce8282610e2f565b6107d5610b5e565b6001600160a01b03811661083a5760405162461bcd60e51b815260206004820152602660248201527f4f776e61626c653a206e6577206f776e657220697320746865207a65726f206160448201526564647265737360d01b606482015260840161042d565b61084381610bb8565b50565b60006001600160e01b0319821663780e9d6360e01b14806102f957506102f982610ec9565b6000818152600260205260409020546001600160a01b03166108435760405162461bcd60e51b8152602060048201526018602482015277115490cdcc8c4e881a5b9d985b1a59081d1bdad95b88125160421b604482015260640161042d565b600081815260046020526040902080546001600160a01b0319166001600160a01b03841690811790915581906108ff82610656565b6001600160a01b03167f8c5be1e5ebec7d5bd14f71427d1e84f3dd0314c0f7b2291e5b200ac8c7c3b92560405160405180910390a45050565b60008061094483610656565b9050806001600160a01b0316846001600160a01b0316148061098b57506001600160a01b0380821660009081526005602090815260408083209388168352929052205460ff165b806109af5750836001600160a01b03166109a484610391565b6001600160a01b0316145b949350505050565b826001600160a01b03166109ca82610656565b6001600160a01b031614610a2e5760405162461bcd60e51b815260206004820152602560248201527f4552433732313a207472616e736665722066726f6d20696e636f72726563742060448201526437bbb732b960d91b606482015260840161042d565b6001600160a01b038216610a905760405162461bcd60e51b8152602060048201526024808201527f4552433732313a207472616e7366657220746f20746865207a65726f206164646044820152637265737360e01b606482015260840161042d565b610a9b838383610f19565b610aa66000826108ca565b6001600160a01b0383166000908152600360205260408120805460019290610acf908490611a6f565b90915550506001600160a01b0382166000908152600360205260408120805460019290610afd908490611a43565b909155505060008181526002602052604080822080546001600160a01b0319166001600160a01b0386811691821790925591518493918716917fddf252ad1be2c89b69c2b068fc378daa952ba7f163c4a11628f55a4df523b3ef91a4505050565b600b546001600160a01b0316331461074e5760405162461bcd60e51b815260206004820181905260248201527f4f776e61626c653a2063616c6c6572206973206e6f7420746865206f776e6572604482015260640161042d565b600b80546001600160a01b038381166001600160a01b0319831681179093556040519116919082907f8be0079c531659141344cd1fd0a4f28419497f9722a3daafe3b4186f6b6457e090600090a35050565b816001600160a01b0316836001600160a01b03161415610c6c5760405162461bcd60e51b815260206004820152601960248201527f4552433732313a20617070726f766520746f2063616c6c657200000000000000604482015260640161042d565b6001600160a01b03838116600081815260056020908152604080832094871680845294825291829020805460ff191686151590811790915591519182527f17307eab39ab6107e8899845ad3d59bd9653f200f220920489ca2b5937696c31910160405180910390a3505050565b610ce48484846109b7565b610cf084848484610f24565b6107a05760405162461bcd60e51b815260040161042d906119a3565b6060610d178261086b565b6000828152600a602052604081208054610d3090611ab2565b80601f0160208091040260200160405190810160405280929190818152602001828054610d5c90611ab2565b8015610da95780601f10610d7e57610100808354040283529160200191610da9565b820191906000526020600020905b815481529060010190602001808311610d8c57829003601f168201915b505050505090506000610dc760408051602081019091526000815290565b9050805160001415610dda575092915050565b815115610e0c578082604051602001610df4929190611924565b60405160208183030381529060405292505050919050565b6109af84611031565b61076a8282604051806020016040528060008152506110a5565b6000828152600260205260409020546001600160a01b0316610eaa5760405162461bcd60e51b815260206004820152602e60248201527f45524337323155524953746f726167653a2055524920736574206f66206e6f6e60448201526d32bc34b9ba32b73a103a37b5b2b760911b606482015260840161042d565b6000828152600a6020908152604090912082516104ce928401906115b2565b60006001600160e01b031982166380ac58cd60e01b1480610efa57506001600160e01b03198216635b5e139f60e01b145b806102f957506301ffc9a760e01b6001600160e01b03198316146102f9565b6104ce8383836110d8565b60006001600160a01b0384163b1561102657604051630a85bd0160e11b81526001600160a01b0385169063150b7a0290610f68903390899088908890600401611953565b602060405180830381600087803b158015610f8257600080fd5b505af1925050508015610fb2575060408051601f3d908101601f19168201909252610faf918101906118c4565b60015b61100c573d808015610fe0576040519150601f19603f3d011682016040523d82523d6000602084013e610fe5565b606091505b5080516110045760405162461bcd60e51b815260040161042d906119a3565b805181602001fd5b6001600160e01b031916630a85bd0160e11b1490506109af565b506001949350505050565b606061103c8261086b565b600061105360408051602081019091526000815290565b90506000815111611073576040518060200160405280600081525061109e565b8061107d84611190565b60405160200161108e929190611924565b6040516020818303038152906040525b9392505050565b6110af83836112aa565b6110bc6000848484610f24565b6104ce5760405162461bcd60e51b815260040161042d906119a3565b6001600160a01b0383166111335761112e81600880546000838152600960205260408120829055600182018355919091527ff3f7a9fe364faab93b216da50a3214154f22a0a2b415b23a84c8169e8b636ee30155565b611156565b816001600160a01b0316836001600160a01b0316146111565761115683826113f8565b6001600160a01b03821661116d576104ce81611495565b826001600160a01b0316826001600160a01b0316146104ce576104ce828261156e565b6060816111b45750506040805180820190915260018152600360fc1b602082015290565b8160005b81156111de57806111c881611aed565b91506111d79050600a83611a5b565b91506111b8565b60008167ffffffffffffffff81111561120757634e487b7160e01b600052604160045260246000fd5b6040519080825280601f01601f191660200182016040528015611231576020820181803683370190505b5090505b84156109af57611246600183611a6f565b9150611253600a86611b08565b61125e906030611a43565b60f81b81838151811061128157634e487b7160e01b600052603260045260246000fd5b60200101906001600160f81b031916908160001a9053506112a3600a86611a5b565b9450611235565b6001600160a01b0382166113005760405162461bcd60e51b815260206004820181905260248201527f4552433732313a206d696e7420746f20746865207a65726f2061646472657373604482015260640161042d565b6000818152600260205260409020546001600160a01b0316156113655760405162461bcd60e51b815260206004820152601c60248201527f4552433732313a20746f6b656e20616c7265616479206d696e74656400000000604482015260640161042d565b61137160008383610f19565b6001600160a01b038216600090815260036020526040812080546001929061139a908490611a43565b909155505060008181526002602052604080822080546001600160a01b0319166001600160a01b03861690811790915590518392907fddf252ad1be2c89b69c2b068fc378daa952ba7f163c4a11628f55a4df523b3ef908290a45050565b60006001611405846106b6565b61140f9190611a6f565b600083815260076020526040902054909150808214611462576001600160a01b03841660009081526006602090815260408083208584528252808320548484528184208190558352600790915290208190555b5060009182526007602090815260408084208490556001600160a01b039094168352600681528383209183525290812055565b6008546000906114a790600190611a6f565b600083815260096020526040812054600880549394509092849081106114dd57634e487b7160e01b600052603260045260246000fd5b90600052602060002001549050806008838154811061150c57634e487b7160e01b600052603260045260246000fd5b600091825260208083209091019290925582815260099091526040808220849055858252812055600880548061155257634e487b7160e01b600052603160045260246000fd5b6001900381819060005260206000200160009055905550505050565b6000611579836106b6565b6001600160a01b039093166000908152600660209081526040808320868452825280832085905593825260079052919091209190915550565b8280546115be90611ab2565b90600052602060002090601f0160209004810192826115e05760008555611626565b82601f106115f957805160ff1916838001178555611626565b82800160010185558215611626579182015b8281111561162657825182559160200191906001019061160b565b50611632929150611636565b5090565b5b808211156116325760008155600101611637565b600067ffffffffffffffff8084111561166657611666611b48565b604051601f8501601f19908116603f0116810190828211818310171561168e5761168e611b48565b816040528093508581528686860111156116a757600080fd5b858560208301376000602087830101525050509392505050565b80356001600160a01b03811681146116d857600080fd5b919050565b6000602082840312156116ee578081fd5b61109e826116c1565b60008060408385031215611709578081fd5b611712836116c1565b9150611720602084016116c1565b90509250929050565b60008060006060848603121561173d578081fd5b611746846116c1565b9250611754602085016116c1565b9150604084013590509250925092565b60008060008060808587031215611779578081fd5b611782856116c1565b9350611790602086016116c1565b925060408501359150606085013567ffffffffffffffff8111156117b2578182fd5b8501601f810187136117c2578182fd5b6117d18782356020840161164b565b91505092959194509250565b600080604083850312156117ef578182fd5b6117f8836116c1565b91506020830135801515811461180c578182fd5b809150509250929050565b60008060408385031215611829578182fd5b611832836116c1565b946020939093013593505050565b600080600060608486031215611854578283fd5b61185d846116c1565b925060208401359150604084013567ffffffffffffffff81111561187f578182fd5b8401601f8101861361188f578182fd5b61189e8682356020840161164b565b9150509250925092565b6000602082840312156118b9578081fd5b813561109e81611b5e565b6000602082840312156118d5578081fd5b815161109e81611b5e565b6000602082840312156118f1578081fd5b5035919050565b60008151808452611910816020860160208601611a86565b601f01601f19169290920160200192915050565b60008351611936818460208801611a86565b83519083019061194a818360208801611a86565b01949350505050565b6001600160a01b0385811682528416602082015260408101839052608060608201819052600090611986908301846118f8565b9695505050505050565b60208152600061109e60208301846118f8565b60208082526032908201527f4552433732313a207472616e7366657220746f206e6f6e20455243373231526560408201527131b2b4bb32b91034b6b83632b6b2b73a32b960711b606082015260800190565b6020808252602e908201527f4552433732313a2063616c6c6572206973206e6f7420746f6b656e206f776e6560408201526d1c881b9bdc88185c1c1c9bdd995960921b606082015260800190565b60008219821115611a5657611a56611b1c565b500190565b600082611a6a57611a6a611b32565b500490565b600082821015611a8157611a81611b1c565b500390565b60005b83811015611aa1578181015183820152602001611a89565b838111156107a05750506000910152565b600181811c90821680611ac657607f821691505b60208210811415611ae757634e487b7160e01b600052602260045260246000fd5b50919050565b6000600019821415611b0157611b01611b1c565b5060010190565b600082611b1757611b17611b32565b500690565b634e487b7160e01b600052601160045260246000fd5b634e487b7160e01b600052601260045260246000fd5b634e487b7160e01b600052604160045260246000fd5b6001600160e01b03198116811461084357600080fdfea2646970667358221220ca01ce6fa89fe5a078a681411abfec14402ef2b70d8687e6d67fce4b22d9dca764736f6c63430008040033",
  "linkReferences": {},
  "deployedLinkReferences": {}
}