{
  "_format": "hh-sol-artifact-1",
  "contractName": "DecentralizedWarranty",
  "sourceName": "contracts/Warranty.sol",
  "abi": [
    {
      "inputs": [],
      "stateMutability": "nonpayable",
      "type": "constructor"
    },
    {
      "anonymous": false,
      "inputs": [
        {
          "indexed": true,
          "internalType": "address",
          "name": "owner",
          "type": "address"
        },
        {
          "indexed": true,
          "internalType": "address",
          "name": "approved",
          "type": "address"
        },
        {
          "indexed": true,
          "internalType": "uint256",
          "name": "tokenId",
          "type": "uint256"
        }
      ],
      "name": "Approval",
      "type": "event"
    },
    {
      "anonymous": false,
      "inputs": [
        {
          "indexed": true,
          "internalType": "address",
          "name": "owner",
          "type": "address"
        },
        {
          "indexed": true,
          "internalType": "address",
          "name": "operator",
          "type": "address"
        },
        {
          "indexed": false,
          "internalType": "bool",
          "name": "approved",
          "type": "bool"
        }
      ],
      "name": "ApprovalForAll",
      "type": "event"
    },
    {
      "anonymous": false,
      "inputs": [
        {
          "indexed": true,
          "internalType": "address",
          "name": "previousOwner",
          "type": "address"
        },
        {
          "indexed": true,
          "internalType": "address",
          "name": "newOwner",
          "type": "address"
        }
      ],
      "name": "OwnershipTransferred",
      "type": "event"
    },
    {
      "anonymous": false,
      "inputs": [
        {
          "indexed": true,
          "internalType": "address",
          "name": "from",
          "type": "address"
        },
        {
          "indexed": true,
          "internalType": "address",
          "name": "to",
          "type": "address"
        },
        {
          "indexed": true,
          "internalType": "uint256",
          "name": "tokenId",
          "type": "uint256"
        }
      ],
      "name": "Transfer",
      "type": "event"
    },
    {
      "inputs": [
        {
          "internalType": "address",
          "name": "to",
          "type": "address"
        },
        {
          "internalType": "uint256",
          "name": "tokenId",
          "type": "uint256"
        }
      ],
      "name": "approve",
      "outputs": [],
      "stateMutability": "nonpayable",
      "type": "function"
    },
    {
      "inputs": [
        {
          "internalType": "address",
          "name": "owner",
          "type": "address"
        }
      ],
      "name": "balanceOf",
      "outputs": [
        {
          "internalType": "uint256",
          "name": "",
          "type": "uint256"
        }
      ],
      "stateMutability": "view",
      "type": "function"
    },
    {
      "inputs": [
        {
          "internalType": "uint256",
          "name": "tokenId",
          "type": "uint256"
        }
      ],
      "name": "getApproved",
      "outputs": [
        {
          "internalType": "address",
          "name": "",
          "type": "address"
        }
      ],
      "stateMutability": "view",
      "type": "function"
    },
    {
      "inputs": [
        {
          "internalType": "address",
          "name": "owner",
          "type": "address"
        },
        {
          "internalType": "address",
          "name": "operator",
          "type": "address"
        }
      ],
      "name": "isApprovedForAll",
      "outputs": [
        {
          "internalType": "bool",
          "name": "",
          "type": "bool"
        }
      ],
      "stateMutability": "view",
      "type": "function"
    },
    {
      "inputs": [],
      "name": "name",
      "outputs": [
        {
          "internalType": "string",
          "name": "",
          "type": "string"
        }
      ],
      "stateMutability": "view",
      "type": "function"
    },
    {
      "inputs": [],
      "name": "owner",
      "outputs": [
        {
          "internalType": "address",
          "name": "",
          "type": "address"
        }
      ],
      "stateMutability": "view",
      "type": "function"
    },
    {
      "inputs": [
        {
          "internalType": "uint256",
          "name": "tokenId",
          "type": "uint256"
        }
      ],
      "name": "ownerOf",
      "outputs": [
        {
          "internalType": "address",
          "name": "",
          "type": "address"
        }
      ],
      "stateMutability": "view",
      "type": "function"
    },
    {
      "inputs": [],
      "name": "renounceOwnership",
      "outputs": [],
      "stateMutability": "nonpayable",
      "type": "function"
    },
    {
      "inputs": [
        {
          "internalType": "address",
          "name": "to",
          "type": "address"
        },
        {
          "internalType": "uint256",
          "name": "tokenId",
          "type": "uint256"
        },
        {
          "internalType": "string",
          "name": "uri",
          "type": "string"
        }
      ],
      "name": "safeMint",
      "outputs": [],
      "stateMutability": "nonpayable",
      "type": "function"
    },
    {
      "inputs": [
        {
          "internalType": "address",
          "name": "from",
          "type": "address"
        },
        {
          "internalType": "address",
          "name": "to",
          "type": "address"
        },
        {
          "internalType": "uint256",
          "name": "tokenId",
          "type": "uint256"
        }
      ],
      "name": "safeTransferFrom",
      "outputs": [],
      "stateMutability": "nonpayable",
      "type": "function"
    },
    {
      "inputs": [
        {
          "internalType": "address",
          "name": "from",
          "type": "address"
        },
        {
          "internalType": "address",
          "name": "to",
          "type": "address"
        },
        {
          "internalType": "uint256",
          "name": "tokenId",
          "type": "uint256"
        },
        {
          "internalType": "bytes",
          "name": "data",
          "type": "bytes"
        }
      ],
      "name": "safeTransferFrom",
      "outputs": [],
      "stateMutability": "nonpayable",
      "type": "function"
    },
    {
      "inputs": [
        {
          "internalType": "address",
          "name": "operator",
          "type": "address"
        },
        {
          "internalType": "bool",
          "name": "approved",
          "type": "bool"
        }
      ],
      "name": "setApprovalForAll",
      "outputs": [],
      "stateMutability": "nonpayable",
      "type": "function"
    },
    {
      "inputs": [
        {
          "internalType": "bytes4",
          "name": "interfaceId",
          "type": "bytes4"
        }
      ],
      "name": "supportsInterface",
      "outputs": [
        {
          "internalType": "bool",
          "name": "",
          "type": "bool"
        }
      ],
      "stateMutability": "view",
      "type": "function"
    },
    {
      "inputs": [],
      "name": "symbol",
      "outputs": [
        {
          "internalType": "string",
          "name": "",
          "type": "string"
        }
      ],
      "stateMutability": "view",
      "type": "function"
    },
    {
      "inputs": [
        {
          "internalType": "uint256",
          "name": "tokenId",
          "type": "uint256"
        }
      ],
      "name": "tokenURI",
      "outputs": [
        {
          "internalType": "string",
          "name": "",
          "type": "string"
        }
      ],
      "stateMutability": "view",
      "type": "function"
    },
    {
      "inputs": [
        {
          "internalType": "address",
          "name": "from",
          "type": "address"
        },
        {
          "internalType": "address",
          "name": "to",
          "type": "address"
        },
        {
          "internalType": "uint256",
          "name": "tokenId",
          "type": "uint256"
        }
      ],
      "name": "transferFrom",
      "outputs": [],
      "stateMutability": "nonpayable",
      "type": "function"
    },
    {
      "inputs": [
        {
          "internalType": "address",
          "name": "newOwner",
          "type": "address"
        }
      ],
      "name": "transferOwnership",
      "outputs": [],
      "stateMutability": "nonpayable",
      "type": "function"
    }
  ],
  "bytecode": "0x60806040523480156200001157600080fd5b50604080518082018252601681527f446563656e7472616c697a65642057617272616e74790000000000000000000060208083019182528351808501909452600384526244655760e81b908401528151919291620000729160009162000101565b5080516200008890600190602084019062000101565b505050620000a56200009f620000ab60201b60201c565b620000af565b620001e4565b3390565b600780546001600160a01b038381166001600160a01b0319831681179093556040519116919082907f8be0079c531659141344cd1fd0a4f28419497f9722a3daafe3b4186f6b6457e090600090a35050565b8280546200010f90620001a7565b90600052602060002090601f0160209004810192826200013357600085556200017e565b82601f106200014e57805160ff19168380011785556200017e565b828001600101855582156200017e579182015b828111156200017e57825182559160200191906001019062000161565b506200018c92915062000190565b5090565b5b808211156200018c576000815560010162000191565b600181811c90821680620001bc57607f821691505b60208210811415620001de57634e487b7160e01b600052602260045260246000fd5b50919050565b61176080620001f46000396000f3fe608060405234801561001057600080fd5b506004361061010b5760003560e01c8063715018a6116100a2578063b88d4fde11610071578063b88d4fde1461021b578063c87b56dd1461022e578063cd279c7c14610241578063e985e9c514610254578063f2fde38b1461029057600080fd5b8063715018a6146101e75780638da5cb5b146101ef57806395d89b4114610200578063a22cb4651461020857600080fd5b806323b872dd116100de57806323b872dd1461018d57806342842e0e146101a05780636352211e146101b357806370a08231146101c657600080fd5b806301ffc9a71461011057806306fdde0314610138578063081812fc1461014d578063095ea7b314610178575b600080fd5b61012361011e36600461145e565b6102a3565b60405190151581526020015b60405180910390f35b6101406102f5565b60405161012f9190611546565b61016061015b366004611496565b610387565b6040516001600160a01b03909116815260200161012f565b61018b6101863660046113cd565b6103ae565b005b61018b61019b3660046112df565b6104c9565b61018b6101ae3660046112df565b6104fa565b6101606101c1366004611496565b610515565b6101d96101d4366004611293565b610575565b60405190815260200161012f565b61018b6105fb565b6007546001600160a01b0316610160565b61014061060f565b61018b610216366004611393565b61061e565b61018b61022936600461131a565b61062d565b61014061023c366004611496565b610665565b61018b61024f3660046113f6565b610670565b6101236102623660046112ad565b6001600160a01b03918216600090815260056020908152604080832093909416825291909152205460ff1690565b61018b61029e366004611293565b61068c565b60006001600160e01b031982166380ac58cd60e01b14806102d457506001600160e01b03198216635b5e139f60e01b145b806102ef57506301ffc9a760e01b6001600160e01b03198316145b92915050565b60606000805461030490611668565b80601f016020809104026020016040519081016040528092919081815260200182805461033090611668565b801561037d5780601f106103525761010080835404028352916020019161037d565b820191906000526020600020905b81548152906001019060200180831161036057829003601f168201915b5050505050905090565b600061039282610705565b506000908152600460205260409020546001600160a01b031690565b60006103b982610515565b9050806001600160a01b0316836001600160a01b0316141561042c5760405162461bcd60e51b815260206004820152602160248201527f4552433732313a20617070726f76616c20746f2063757272656e74206f776e656044820152603960f91b60648201526084015b60405180910390fd5b336001600160a01b038216148061044857506104488133610262565b6104ba5760405162461bcd60e51b815260206004820152603e60248201527f4552433732313a20617070726f76652063616c6c6572206973206e6f7420746f60448201527f6b656e206f776e6572206e6f7220617070726f76656420666f7220616c6c00006064820152608401610423565b6104c48383610764565b505050565b6104d333826107d2565b6104ef5760405162461bcd60e51b8152600401610423906115ab565b6104c4838383610851565b6104c48383836040518060200160405280600081525061062d565b6000818152600260205260408120546001600160a01b0316806102ef5760405162461bcd60e51b8152602060048201526018602482015277115490cdcc8c4e881a5b9d985b1a59081d1bdad95b88125160421b6044820152606401610423565b60006001600160a01b0382166105df5760405162461bcd60e51b815260206004820152602960248201527f4552433732313a2061646472657373207a65726f206973206e6f7420612076616044820152683634b21037bbb732b960b91b6064820152608401610423565b506001600160a01b031660009081526003602052604090205490565b6106036109ed565b61060d6000610a47565b565b60606001805461030490611668565b610629338383610a99565b5050565b61063733836107d2565b6106535760405162461bcd60e51b8152600401610423906115ab565b61065f84848484610b68565b50505050565b60606102ef82610b9b565b6106786109ed565b6106828383610ca4565b6104c48282610cbe565b6106946109ed565b6001600160a01b0381166106f95760405162461bcd60e51b815260206004820152602660248201527f4f776e61626c653a206e6577206f776e657220697320746865207a65726f206160448201526564647265737360d01b6064820152608401610423565b61070281610a47565b50565b6000818152600260205260409020546001600160a01b03166107025760405162461bcd60e51b8152602060048201526018602482015277115490cdcc8c4e881a5b9d985b1a59081d1bdad95b88125160421b6044820152606401610423565b600081815260046020526040902080546001600160a01b0319166001600160a01b038416908117909155819061079982610515565b6001600160a01b03167f8c5be1e5ebec7d5bd14f71427d1e84f3dd0314c0f7b2291e5b200ac8c7c3b92560405160405180910390a45050565b6000806107de83610515565b9050806001600160a01b0316846001600160a01b0316148061082557506001600160a01b0380821660009081526005602090815260408083209388168352929052205460ff165b806108495750836001600160a01b031661083e84610387565b6001600160a01b0316145b949350505050565b826001600160a01b031661086482610515565b6001600160a01b0316146108c85760405162461bcd60e51b815260206004820152602560248201527f4552433732313a207472616e736665722066726f6d20696e636f72726563742060448201526437bbb732b960d91b6064820152608401610423565b6001600160a01b03821661092a5760405162461bcd60e51b8152602060048201526024808201527f4552433732313a207472616e7366657220746f20746865207a65726f206164646044820152637265737360e01b6064820152608401610423565b610935600082610764565b6001600160a01b038316600090815260036020526040812080546001929061095e908490611625565b90915550506001600160a01b038216600090815260036020526040812080546001929061098c9084906115f9565b909155505060008181526002602052604080822080546001600160a01b0319166001600160a01b0386811691821790925591518493918716917fddf252ad1be2c89b69c2b068fc378daa952ba7f163c4a11628f55a4df523b3ef91a4505050565b6007546001600160a01b0316331461060d5760405162461bcd60e51b815260206004820181905260248201527f4f776e61626c653a2063616c6c6572206973206e6f7420746865206f776e65726044820152606401610423565b600780546001600160a01b038381166001600160a01b0319831681179093556040519116919082907f8be0079c531659141344cd1fd0a4f28419497f9722a3daafe3b4186f6b6457e090600090a35050565b816001600160a01b0316836001600160a01b03161415610afb5760405162461bcd60e51b815260206004820152601960248201527f4552433732313a20617070726f766520746f2063616c6c6572000000000000006044820152606401610423565b6001600160a01b03838116600081815260056020908152604080832094871680845294825291829020805460ff191686151590811790915591519182527f17307eab39ab6107e8899845ad3d59bd9653f200f220920489ca2b5937696c31910160405180910390a3505050565b610b73848484610851565b610b7f84848484610d58565b61065f5760405162461bcd60e51b815260040161042390611559565b6060610ba682610705565b60008281526006602052604081208054610bbf90611668565b80601f0160208091040260200160405190810160405280929190818152602001828054610beb90611668565b8015610c385780601f10610c0d57610100808354040283529160200191610c38565b820191906000526020600020905b815481529060010190602001808311610c1b57829003601f168201915b505050505090506000610c5660408051602081019091526000815290565b9050805160001415610c69575092915050565b815115610c9b578082604051602001610c839291906114da565b60405160208183030381529060405292505050919050565b61084984610e65565b610629828260405180602001604052806000815250610ed9565b6000828152600260205260409020546001600160a01b0316610d395760405162461bcd60e51b815260206004820152602e60248201527f45524337323155524953746f726167653a2055524920736574206f66206e6f6e60448201526d32bc34b9ba32b73a103a37b5b2b760911b6064820152608401610423565b600082815260066020908152604090912082516104c492840190611168565b60006001600160a01b0384163b15610e5a57604051630a85bd0160e11b81526001600160a01b0385169063150b7a0290610d9c903390899088908890600401611509565b602060405180830381600087803b158015610db657600080fd5b505af1925050508015610de6575060408051601f3d908101601f19168201909252610de39181019061147a565b60015b610e40573d808015610e14576040519150601f19603f3d011682016040523d82523d6000602084013e610e19565b606091505b508051610e385760405162461bcd60e51b815260040161042390611559565b805181602001fd5b6001600160e01b031916630a85bd0160e11b149050610849565b506001949350505050565b6060610e7082610705565b6000610e8760408051602081019091526000815290565b90506000815111610ea75760405180602001604052806000815250610ed2565b80610eb184610f0c565b604051602001610ec29291906114da565b6040516020818303038152906040525b9392505050565b610ee38383611026565b610ef06000848484610d58565b6104c45760405162461bcd60e51b815260040161042390611559565b606081610f305750506040805180820190915260018152600360fc1b602082015290565b8160005b8115610f5a5780610f44816116a3565b9150610f539050600a83611611565b9150610f34565b60008167ffffffffffffffff811115610f8357634e487b7160e01b600052604160045260246000fd5b6040519080825280601f01601f191660200182016040528015610fad576020820181803683370190505b5090505b841561084957610fc2600183611625565b9150610fcf600a866116be565b610fda9060306115f9565b60f81b818381518110610ffd57634e487b7160e01b600052603260045260246000fd5b60200101906001600160f81b031916908160001a90535061101f600a86611611565b9450610fb1565b6001600160a01b03821661107c5760405162461bcd60e51b815260206004820181905260248201527f4552433732313a206d696e7420746f20746865207a65726f20616464726573736044820152606401610423565b6000818152600260205260409020546001600160a01b0316156110e15760405162461bcd60e51b815260206004820152601c60248201527f4552433732313a20746f6b656e20616c7265616479206d696e746564000000006044820152606401610423565b6001600160a01b038216600090815260036020526040812080546001929061110a9084906115f9565b909155505060008181526002602052604080822080546001600160a01b0319166001600160a01b03861690811790915590518392907fddf252ad1be2c89b69c2b068fc378daa952ba7f163c4a11628f55a4df523b3ef908290a45050565b82805461117490611668565b90600052602060002090601f01602090048101928261119657600085556111dc565b82601f106111af57805160ff19168380011785556111dc565b828001600101855582156111dc579182015b828111156111dc5782518255916020019190600101906111c1565b506111e89291506111ec565b5090565b5b808211156111e857600081556001016111ed565b600067ffffffffffffffff8084111561121c5761121c6116fe565b604051601f8501601f19908116603f01168101908282118183101715611244576112446116fe565b8160405280935085815286868601111561125d57600080fd5b858560208301376000602087830101525050509392505050565b80356001600160a01b038116811461128e57600080fd5b919050565b6000602082840312156112a4578081fd5b610ed282611277565b600080604083850312156112bf578081fd5b6112c883611277565b91506112d660208401611277565b90509250929050565b6000806000606084860312156112f3578081fd5b6112fc84611277565b925061130a60208501611277565b9150604084013590509250925092565b6000806000806080858703121561132f578081fd5b61133885611277565b935061134660208601611277565b925060408501359150606085013567ffffffffffffffff811115611368578182fd5b8501601f81018713611378578182fd5b61138787823560208401611201565b91505092959194509250565b600080604083850312156113a5578182fd5b6113ae83611277565b9150602083013580151581146113c2578182fd5b809150509250929050565b600080604083850312156113df578182fd5b6113e883611277565b946020939093013593505050565b60008060006060848603121561140a578283fd5b61141384611277565b925060208401359150604084013567ffffffffffffffff811115611435578182fd5b8401601f81018613611445578182fd5b61145486823560208401611201565b9150509250925092565b60006020828403121561146f578081fd5b8135610ed281611714565b60006020828403121561148b578081fd5b8151610ed281611714565b6000602082840312156114a7578081fd5b5035919050565b600081518084526114c681602086016020860161163c565b601f01601f19169290920160200192915050565b600083516114ec81846020880161163c565b83519083019061150081836020880161163c565b01949350505050565b6001600160a01b038581168252841660208201526040810183905260806060820181905260009061153c908301846114ae565b9695505050505050565b602081526000610ed260208301846114ae565b60208082526032908201527f4552433732313a207472616e7366657220746f206e6f6e20455243373231526560408201527131b2b4bb32b91034b6b83632b6b2b73a32b960711b606082015260800190565b6020808252602e908201527f4552433732313a2063616c6c6572206973206e6f7420746f6b656e206f776e6560408201526d1c881b9bdc88185c1c1c9bdd995960921b606082015260800190565b6000821982111561160c5761160c6116d2565b500190565b600082611620576116206116e8565b500490565b600082821015611637576116376116d2565b500390565b60005b8381101561165757818101518382015260200161163f565b8381111561065f5750506000910152565b600181811c9082168061167c57607f821691505b6020821081141561169d57634e487b7160e01b600052602260045260246000fd5b50919050565b60006000198214156116b7576116b76116d2565b5060010190565b6000826116cd576116cd6116e8565b500690565b634e487b7160e01b600052601160045260246000fd5b634e487b7160e01b600052601260045260246000fd5b634e487b7160e01b600052604160045260246000fd5b6001600160e01b03198116811461070257600080fdfea2646970667358221220d4ab785f79135e10ebdc80772f1e73e1c6043e144d469dad0547c18669f9ef2464736f6c63430008040033",
  "linkReferences": {},
  "deployedLinkReferences": {}
}